:100000000C94F4030C941C040C941C040C941C0419
:100010000C941C040C941C040C941C040C941C04E0
:100020000C941C040C941C040C94F0070C946208AF
:100030000C941C040C941C040C941C040C941C04C0
:100040000C941C040C941C040C941C040C941C04B0
:100050000C941C040C941C040C941C040C94F20CC2
:100060000C941C040C941C040C941C040C941C0490
:100070000C941C040C941C040C941C040C941C0480
:100080000C941C040C941C040C941C040C941C0470
:100090000C941C040C941C040C941C040C941C0460
:1000A0000C941C040C941C040C941C04F0F89C8EFE
:1000B0008783878E9CF8F00000FEFF030303030391
:1000C000070EFCF80000FEFF0303030303070EFC0A
:1000D000F80000FFFF00000000000000FFFF00002C
:1000E000FEFF8383838383C7EE7C380000F8FC0E19
:1000F00007030303070EFCF800003F7FE0C0808089
:10010000C0E07F3FFFFF01010101010101FFFF008E
:1001100000FFFF0C0C0C0C1C3E77E3C100007FFFBE
:10012000C0C0C0C0C0E0703F1F00001F3F70E0C0F3
:10013000C0C0E0703F1F00007FFFC1C1C1C1C1E36B
:10014000773E1C00001F3F70E0C0C0C0E0703F1F42
:10015000000000000001FFFF01000000D5F08D1439
:10016000A1C881CFD9F1AF200050726573732041CF
:1001700020746F20436F6E74696E7565006279201C
:10018000416E6472657720576F6F6462726964674D
:10019000650044756E67656F6E00506F636B6574C4
:1001A00000FC929399999392FC001F88EB3FE080AA
:1001B0000083EEF8F8FCF4F6C0080B00020202011E
:1001C00000090400000102020000052400100105DE
:1001D000240101010424020605240600010705810B
:1001E0000310004009040100020A00000007050294
:1001F00002400000070583024000000403090412C6
:10020000010002EF02014041233680000101020398
:100210000141726475696E6F204C4C4300417264F9
:1002200075626F790000B00000A170E150964F2612
:10023000900F1D070C009669004AE44A00484440AC
:1002400000806810000F99FB8F9DBDBBFB77D4D455
:10025000DF1F1A1AFE7F5D5DFF805A0000A0A4AA6E
:100260000010BA3400FF5953F3FF9B9B9EFFB9B9AE
:1002700096FF9595D19FF4940FFC295F91FF183854
:10028000F8FF9294FFFF95D5F7BFB5DDD7F18F81C9
:10029000F1F788C8F779C6467909FD9B090196F8F8
:1002A00000828182805071620077565600767637E0
:1002B00000A2B773010772060078275000733474E8
:1002C00000775176007F55F7004771100032477272
:1002D000007364730015A2750061679400009F604D
:1002E00060F4F2F6F200000000003E5B4F5B3E3E21
:1002F0006B4F6B3E1C3E7C3E1C183C7E3C181C57D2
:100300007D571C1C5E7F5E1C00183C1800FFE7C375
:10031000E7FF0018241800FFE7DBE7FF30483A0644
:100320000E2629792926407F050507407F05253FB0
:100330005A3CE73C5A7F3E1C1C08081C1C3E7F149C
:10034000227F22145F5F005F5F06097F017F0066E6
:1003500089956A606060606094A2FFA29408047E40
:10036000040810207E201008082A1C08081C2A08EF
:10037000081E101010100C1E0C1E0C30383E3830A9
:10038000060E3E0E06000000000000005F000000A8
:1003900007000700147F147F14242A7F2A122313D6
:1003A00008646236495620500008070300001C22EA
:1003B00041000041221C002A1C7F1C2A08083E081C
:1003C000080080703000080808080800006060001D
:1003D00020100804023E5149453E00427F40007211
:1003E000494949462141494D331814127F10274588
:1003F0004545393C4A4949314121110907364949A6
:100400004936464949291E000014000000403400C6
:10041000000008142241141414141400412214087A
:1004200002015909063E415D594E7C1211127C7F32
:10043000494949363E414141227F4141413E7F4940
:100440004949417F090909013E414151737F08082B
:10045000087F00417F41002040413F017F08142276
:10046000417F404040407F021C027F7F0408107F94
:100470003E4141413E7F090909063E4151215E7FCF
:1004800009192946264949493203017F01033F40A2
:1004900040403F1F2040201F3F4038403F6314082A
:1004A000146303047804036159494D43007F4141BB
:1004B000410204081020004141417F04020102046E
:1004C0004040404040000307080020545478407FDB
:1004D000284444383844444428384444287F385415
:1004E00054541800087E090218A4A49C787F0804BC
:1004F000047800447D40002040403D007F102844A7
:100500000000417F40007C047804787C0804047873
:100510003844444438FC1824241818242418FC7C3B
:1005200008040408485454542404043F44243C4020
:1005300040207C1C2040201C3C4030403C44281083
:1005400028444C9090907C4464544C4400083641BC
:10055000000000770000004136080002010204029A
:100560003C2623263C1EA1A161123A4040207A3845
:1005700054545559215555794121545478412155A8
:1005800054784020545579400C1E527212395555FA
:100590005559395454545939555454580000457CD0
:1005A000410002457D420001457C40F0292429F0AC
:1005B000F0282528F07C545545002054547C547C68
:1005C0000A097F4932494949323248484832324A59
:1005D0004848303A4141217A3A42402078009DA073
:1005E000A07D39444444393D4040403D3C24FF24F3
:1005F00024487E4943662B2FFC2F2BFF0929F62028
:10060000C0887E090320545479410000447D413064
:1006100048484A32384040227A007A0A0A727D0DF0
:1006200019317D2629292F28262929292630484DA8
:100630004020380808080808080808382F10C8ACF7
:10064000BA2F102834FA00007B000008142A142264
:1006500022142A14089500220095AA005500AAAA7F
:1006600055AA55AA000000FF00101010FF00141436
:1006700014FF001010FF00FF1010F010F0141414FD
:10068000FC001414F700FF0000FF00FF1414F40432
:10069000FC141417101F10101F101F1414141F0027
:1006A000101010F0000000001F101010101F10108C
:1006B0001010F010000000FF10101010101010109B
:1006C00010FF10000000FF140000FF00FF00001FDB
:1006D00010170000FC04F414141710171414F40479
:1006E000F40000FF00F714141414141414F700F7A6
:1006F000141414171410101F101F141414F41410D1
:1007000010F010F000001F101F0000001F14000068
:1007100000FC140000F010F01010FF10FF1414146F
:10072000FF141010101F00000000F010FFFFFFFF6B
:10073000FFF0F0F0F0F0FFFFFF0000000000FFFF0F
:100740000F0F0F0F0F38444438447C2A2A3E147E82
:1007500002020606027E027E026355494163384466
:10076000443C04407E201E2006027E020299A5E73A
:10077000A5991C2A492A1C4C7201724C304A4D4DD5
:10078000303048784830BC625A463D3E49494900BD
:100790007E0101017E2A2A2A2A2A44445F444440D9
:1007A000514A444040444A51400000FF0103E08068
:1007B000FF000008086B6B083612362436060F0956
:1007C0000F06000018180000001010003040FF0154
:1007D00001001F01011E00191D1712003C3C3C3C8A
:1007E000000000000000B51111241FBECFEFDAE0B9
:1007F000DEBFCDBF11E0A0E0B1E0EEEEF7E202C057
:1008000005900D92A836B107D9F726E0A8E6B1E029
:1008100001C01D92A83DB207E1F713E0C4EFD3E099
:1008200004C02197FE010E94EF13C33FD107C9F70F
:100830000E945D0D0C94F5130C940000209125028C
:10084000211103C08FEF9FEF08955FB7F89422E066
:100850002093E9002091F20030E01216130614F400
:1008600021E030E0422FFC0184E6415038F0289826
:10087000809324029091F1009193F7CF21153105D7
:1008800021F08091F200882319F05FBFC90108951B
:100890008BE68093E800F9CF2FB7F89483E080933C
:1008A000E9009091E800892F807295FF04C0909133
:1008B000F20080E4891B2FBF0895CF93DF931F922E
:1008C000CDB7DEB76983DC01ED91FC910280F38145
:1008D000E02D41E050E0BE016F5F7F4F09950F9022
:1008E000DF91CF91089583E08093E9008091F20039
:1008F000882319F08AE38093E80008950E944C044D
:1009000090E00895CF93DF931F92CDB7DEB7FC013F
:100910008485958597FD05C02FEF3FEF35872487A8
:100920000BC0CE0101960E941E04019719F4898123
:1009300090E002C08FEF9FEF0F90DF91CF9108956D
:100940000F931F93CF93DF931F92CDB7DEB78C0128
:10095000FC018485958597FF0EC0CE0101960E940B
:100960001E04019719F4898190E002C08FEF9FEF78
:10097000F80195878487F801848595850F90DF912C
:10098000CF911F910F91089520915D06282329F49E
:1009900090915C06982381E009F480E00895EEE3ED
:1009A000F2E0A0E0B8E000800EBC8111012C1197AC
:1009B000A0FDFDCF0192B9F70DB4089542E050E0DB
:1009C00065E671E083E596E00C94610A0F931F934E
:1009D000CF93DF938C01C0E0D0E0F801EC0FFD1F56
:1009E0006491662341F083E596E00E94F80B892B21
:1009F00011F02196F2CF0E94DE048C0F9D1FDF9133
:100A0000CF911F910F9108952F923F924F925F9235
:100A10006F927F928F929F92AF92BF92CF92DF920E
:100A2000EF92FF920F931F93CF93DF93EC018B0113
:100A30007A016901C61AD70AD7FE03C0D194C194BE
:100A4000D10847018C1A9D0A97FE03C091948194A6
:100A500091088C149D0454F49E2D8F2D7901292F1B
:100A6000382F9C2F8D2FE801092F182FEC16FD062B
:100A700054F4902F812F8901292F382F9C2F8D2FEF
:100A8000E701E92EF82E17012C1A3D0A2901401A18
:100A9000510A57FE03C0519441945108310137FE69
:100AA00003C08FEF681A780A7594679402171307CA
:100AB00014F08FEF01C081E0A82E880FBB08EC1660
:100AC000FD06ACF041E08C149D041CF4BE01C8018D
:100AD00002C0B801CE010E94DD0B6418750877FED4
:100AE00004C00A0D1B1D620C731C2196E8CFDF9118
:100AF000CF911F910F91FF90EF90DF90CF90BF901B
:100B0000AF909F908F907F906F905F904F903F90AD
:100B10002F9008952F923F924F925F926F927F9203
:100B20008F929F92AF92BF92CF92DF92EF92FF92FD
:100B30000F931F93CF93DF93CDB7DEB72A970FB6EE
:100B4000F894DEBF0FBECDBF5A01822E912C9401C6
:100B5000280F391F37FDBAC0803891050CF0B6C098
:100B60009B01200F311D37FDB1C0603471050CF0C1
:100B7000ADC0AB0177FF04C044275527461B570B78
:100B8000477055279B0177FF02C0295F3F4FE3E085
:100B900035952795EA95E1F777FF08C0215031098F
:100BA00068E070E0FB01E41BF50BAF01202E2694FA
:100BB00026942694312C077019F0FFEF2F1A3F0A64
:100BC000220E331E39017694762C6624779467942E
:100BD000680E791EE12CF12C00E010E0B3016058A2
:100BE0007F4F7A87698768E070E0FB01E41BF50BB3
:100BF000FA83E9832216330609F468C028303105E8
:100C000009F464C02F3FFFEF3F070CF454C0E9859F
:100C1000FA85E00FF11FBF01625C7D4F7C836B831F
:100C2000D801A60DB71DA25CBD4F6C0160E070E05D
:100C3000681579050CF03FC0E0E8CE16D10409F440
:100C40003AC0D7FC2CC02F3FFFEF3F0709F43AC052
:100C5000FB01EE0DFF1DEA0DFB1DE491042E01C00A
:100C6000EE0F0A94EAF7FC91EF2BEC934115510536
:100C7000B1F02730310599F0FB01EE0DFF1DEA0DB3
:100C8000FB1DE4914E2E512C098002C055944794CF
:100C90000A94E2F7EB81FC815080452840826F5F27
:100CA0007F4FEB81FC813196FC83EB83FFEFCF1A02
:100CB000DF0A1196BDCF2F5F3F4F00581F4FE80C42
:100CC000F91C98CF41155105B9F6E9CF2A960FB610
:100CD000F894DEBF0FBECDBFDF91CF911F910F9172
:100CE000FF90EF90DF90CF90BF90AF909F908F904C
:100CF0007F906F905F904F903F902F900895E1E02C
:100D0000F0E00E94A607319728F068517C4F8F4F82
:100D10009F4FF9CFAB01FC010E94A607641775072E
:100D20008E079F07C8F308958F929F92AF92BF924C
:100D3000CF92DF92EF92FF920F931F93CF93DF93A7
:100D40006C017B018A0180910901882309F458C054
:100D500080912502882309F453C08091230280FFEB
:100D600005C08091E00082608093E000E801B12C32
:100D70008AEFA82E93E0892E2AE3922E209711F471
:100D8000BB20B9F10E944C04811106C0AA94AA208C
:100D9000B9F10E947F06F2CF282F30E0C217D307A7
:100DA0000CF48C2F9FB7F8948092E9002091E80012
:100DB00025FF1DC0282F30E0C21BD30BF701815047
:100DC00020F041914093F100FACFE20EF31EBB20D8
:100DD00019F09092E8000AC08091E80085FD07C0F4
:100DE0009092E800BB24B394209709F0B12C9FBFE8
:100DF000C5CF5D9884E6809322021016110644F058
:100E000081E090E0F6019383828380E090E001C06E
:100E1000C801DF91CF911F910F91FF90EF90DF906C
:100E2000CF90BF90AF909F908F90089580916E0665
:100E300081110DC082E080936A0684E080936B0686
:100E400010926D0610926C0681E080936E068AE621
:100E500096E00895FC018485958597FD0BC09FB7AA
:100E6000F89482E08093E9008091F2009FBF90E0C7
:100E7000019608959FB7F89482E08093E9008091ED
:100E8000F2009FBF90E008954091CE065091CF06AA
:100E90002091CC063091CD0642175307B4F49091BF
:100EA000E8009570E1F39091E80092FD19C08093FD
:100EB000F1008091CE069091CF0601968F7399270D
:100EC000892B19F48EEF8093E8008091CE069091E3
:100ED000CF0601969093CF068093CE0681E00895C9
:100EE00080E00895DF92EF92FF920F931F93CF93CC
:100EF000DF93D82E8A017B01E40EF51EEB01CE159F
:100F0000DF0571F0D7FE03C0FE01849101C0888126
:100F10000E94440721968111F2CF8FEF9FEF01C00D
:100F2000C801DF91CF911F910F91FF90EF90DF905B
:100F30000895615030F02091F100FC01208301966A
:100F4000F8CF289884E6809324020895A6ECB6E0B2
:100F50002FB7F8947D918D919C9166B52FBFA89B7A
:100F600005C06F3F18F47F5F8F4F9F4F22E0660FE1
:100F7000771F881F991F2A95D1F708950F931F9304
:100F8000CF93DF931F92CDB7DEB782E0898342E42F
:100F900050E069EB71E080E80E9472070E9416073A
:100FA000DC0112960D911C9113970115110589F022
:100FB000D801ED91FC910280F381E02DBE016F5FBD
:100FC0007F4FC801099597FD04C0F8010085118580
:100FD000ECCF89810F90DF91CF911F910F910895F0
:100FE0001F920F920FB60F9211248F939F938091AF
:100FF000E1009091E100937F9093E10083FF0FC0A7
:101000001092E90091E09093EB001092EC0092E3D3
:101010009093ED001092250298E09093F00082FFEB
:1010200020C093E09093E9009091F200992319F089
:101030009AE39093E80090912202992339F09091DD
:101040002202915090932202992389F190912402D7
:10105000992339F09091240291509093240299237E
:1010600041F184FF10C08091E2008E7E8160809308
:10107000E2008091E1008F7E8093E1008091230265
:101080008E7E806111C080FF16C08091E2008E7E4E
:1010900080618093E2008091E1008E7E8093E10088
:1010A000809123028E7E81608093230204C05D9A2A
:1010B000CDCF289AD6CF9F918F910F900FBE0F90D2
:1010C0001F9018951F920F920FB60F921124CF9276
:1010D000DF92EF92FF920F931F932F933F934F93C3
:1010E0005F936F937F938F939F93AF93BF93EF9390
:1010F000FF93CF93DF93CDB7DEB76C97DEBFCDBF45
:101100001092E9008091E80083FFBCC168E0CE0145
:1011100045960E94990782EF8093E8008D8987FFAA
:1011200005C09091E80090FFFCCF03C09EEF909324
:10113000E800982F907609F0C6C09E894F89588D97
:101140002F89F88C91110CC0803829F48091CB063E
:101150008093F10002C01092F1001092F1008FC153
:10116000913051F481118BC14130510509F087C193
:101170008091CB068D7F0BC0933061F481117FC1CC
:101180004130510509F07BC18091CB06826080938C
:10119000CB0675C1953049F48091E80080FFFCCF03
:1011A000822F80688093E3006AC1963009F05EC0A8
:1011B0000B8D1C8D22E01092E9001092CF06109248
:1011C000CE06F21232C01092CD061092CC060E94CA
:1011D000BE0799E0BE016F5F7F4FDB01E92F1D92D3
:1011E000EA95E9F79983FA8291E09E8390EA9887DD
:1011F0009AEF99872091CE063091CF06275F3F4F17
:101200003C832B838D831092E9001092CF061092BD
:10121000CE061093CD060093CC0649E050E080E066
:101220000E9472070E94BE072AC11093CD06009348
:10123000CC060E941607DC0112960D911C911397A3
:101240000115110509F4BEC0D801ED91FC9104808F
:10125000F581E02DBE016B5E7F4FC80109950097B7
:1012600009F0ABC0F80100851185EACF973009F489
:1012700002C1983021F481E08093F10000C19930DF
:1012800009F0FDC0837009F0F6C0E5E4F1E081E00B
:1012900031E096E32081211109C08EE78093EA00B6
:1012A0001092EA008F8980932502E9C08093E900BB
:1012B0003093EB0021912093EC009093ED008F5F31
:1012C000873041F7EACF8B8D9C8D1092E900109208
:1012D000CF061092CE069093CD068093CC06898DD2
:1012E00081114FC08E899D89913A49F4813209F06C
:1012F000C2C047E050E062E071E080E0B6C09132E9
:1013000009F0B9C0833269F48F89988DA0E0B0E00C
:1013100080930A0190930B01A0930C01B0930D01EF
:10132000AEC0803269F48091E80082FFFCCF67E0B4
:1013300082E091E00E9499078BEF8093E80006C05D
:10134000823209F09CC08F8980930901809102014B
:1013500090910301A0910401B0910501803B94405C
:10136000A105B10509F084C08091090180FD80C00C
:1013700088E78093CA06809164008F7D8093640023
:101380007EC00E941607DC0112960D911C911397E6
:101390000115110509F46FC0D801ED91FC91019080
:1013A000F081E02DBE016B5E7F4FC8010995811170
:1013B00066C0F80100851185EBCF181619060CF4EC
:1013C0005EC059C0F1E0FF1609F446C0F3E0FF1219
:1013D00052C08F89882309F442C0823029F440E842
:1013E00067E08DE192E006C0813051F440E86BE0A7
:1013F00081E192E00E943212882309F43CC03FC090
:101400008330C9F50E941607DC011296ED90FC901E
:1014100013978E010F5F1F4F6801E114F10479F0FB
:10142000D701ED91FC910680F781E02DB801C7014D
:101430000995080F111DF701E084F184EECFD80162
:101440001C92F60101900020E9F73197BF016C1959
:101450007D0940E0C601CECF6FEF71E002C06BEFB7
:1014600071E0FB01449150E080E80E94720707C0E0
:101470001092CA0604C081E28093EB0003C08EEF95
:101480008093E8006C960FB6F894DEBF0FBECDBF18
:10149000DF91CF91FF91EF91BF91AF919F918F918C
:1014A0007F916F915F914F913F912F911F910F917C
:1014B000FF90EF90DF90CF900F900FBE0F901F9096
:1014C0001895CF92DF92EF92FF920F931F93CF93D5
:1014D000DF936C017A018B01C0E0D0E0CE15DF050F
:1014E00081F0D8016D918D01D601ED91FC910190B3
:1014F000F081E02DC6010995892B11F02196EECFE0
:101500007E01C701DF91CF911F910F91FF90EF9066
:10151000DF90CF90089508954F925F926F927F92DF
:101520008F929F92AF92BF92CF92DF92EF92FF92F3
:101530000F931F93CF93DF936C013B01102F38E083
:10154000832E912C7A01FF24270193E05594479430
:101550009A95E1F7CA0187709927892B41F5D60141
:101560001796CD91DC911897C3019927BE010E946F
:10157000C7134C9EF0014D9EF00D5C9EF00D1124A2
:101580009927D60115964D915C9116978E0F9F1F46
:10159000FA01E80FF91F111106C0C22FC095208172
:1015A0002C23208327C0C081C22BC08323C0C22F1D
:1015B000D0E04770A42EB12C720183E0EE0CFF1C2A
:1015C0008A95E1F79E0101C0220F4A95EAF7012FA3
:1015D000A701B301C6010E948C0AC4018A199B09A4
:1015E00002C0D595C7958A95E2F72C2FA701485FD1
:1015F0005F4FA8CFDF91CF911F910F91FF90EF9098
:10160000DF90CF90BF90AF909F908F907F906F9022
:101610005F904F9008955F926F927F928F929F920A
:10162000AF92BF92CF92DF92EF92FF920F931F93F0
:10163000CF93DF93EC016A3061F48D859E859C87A2
:101640008B872C898F859889820F911D988B8F8726
:1016500077C0CB84DC84693031F489E0C80ED11CBA
:10166000DC86CB866DC09DEFC9169FEFD90654F47A
:101670008B8990E004962B853C85820F931F9C8775
:101680008B875EC08F819885C816D9068CF7EF844A
:10169000F8888DEFE8168FEFF80654F389859A8560
:1016A000E816F9062CF7603208F46FE780EE860F33
:1016B0009FE9960F9A3118F49FEFE91AF90A8C30D6
:1016C00011F08B3119F49FEFE91AF90A869594E02D
:1016D000899F50011124360184E0680E711C460177
:1016E000162F1170F401EC19FD09EA0DFB1DEB5DDD
:1016F000FD4F8491111103C08F70582E04C0582ED5
:1017000052948FE058228C81882361F001E089890E
:101710009A89892B09F000E02FE0A701B401CE01DE
:101720000E948C0A0989252DA701B401CE010E94CF
:101730008C0A9FEF891A990A6814790499F698CF50
:1017400081E090E0DF91CF911F910F91FF90EF909A
:10175000DF90CF90BF90AF909F908F907F906F90D1
:101760005F900895089580E090E008952D9A08957F
:10177000BC0180E090E0AB01FC010E94A607415053
:101780005109E109F10928F068517C4F8F4F9F4FB3
:10179000F6CFAB01FC010E94A607641775078E0700
:1017A0009F07C8F308958FB18095807F669B8860FE
:1017B0001C9B846008950C944E1380389105B8F4F6
:1017C00060347105A0F490E121E061FD24E060FD4A
:1017D000220F62FD2295687F969FD0011124A80FE9
:1017E000A25CBD4F8C91822B40FF82278C93089581
:1017F0002F923F924F925F926F927F928F929F9221
:10180000AF92BF92CF92DF92EF92FF920F931F930E
:10181000CF93DF93CDB7DEB727970FB6F894DEBF2F
:101820000FBECDBF9F838E836A30A1F4DC01559635
:101830002C91559751968D919C915297B8E02B9F82
:10184000800D911D1124EE81FF81928B818B108A76
:101850001786ADC06D3009F4AAC0AE81BF811F9656
:101860000D911C91509700381105BCF0EE81FF815D
:101870002589422F50E087859089F6E02F9F800DC3
:10188000911D1124AE81BF8150969C938E931F971A
:1018900056962C91211175C08AC0EE81FF818188F6
:1018A0009288F0E48F1691040CF7AE81BF815596B3
:1018B0003C90C801B5E03B9E800D911D1124181687
:1018C0001906A4F6432C512CC401E8E03E9E800D7D
:1018D000911D1124181619064CF6AE81BF8154963D
:1018E000BC91BC83EE81FF81F389FD8325E0629F7B
:1018F000B0011124CB018B519D4F3C011982F301A2
:101900002490F981F53009F4212C640128E02B831F
:1019100020FE03C03D813A8302C08C818A839A8174
:10192000911104C0AC81BD81AB17B9F078018E2D47
:10193000801B831590F456018A2D8C19831548F469
:101940004A81B501C7010E94DD0BEFEFAE1ABE0A56
:10195000F3CFFFEFEF1AFF0AEACF26942B81215035
:101960002B83C40CD51C2111D3CF39813F5F398320
:10197000040D151DC30101963C01363009F0BFCF9F
:1019800075CF6AEF64039001659F300D11242058D4
:101990003F4F281739075CF4AE81BF81ED91FC9170
:1019A00011970190F081E02D6AE0CD01099581E069
:1019B00090E027960FB6F894DEBF0FBECDBFDF9143
:1019C000CF911F910F91FF90EF90DF90CF90BF903C
:1019D000AF909F908F907F906F905F904F903F90CF
:1019E0002F9008950F930FB70F931F9211248F9389
:1019F0009F93EF93FF93E0EDF6E08091D70691E09F
:101A00008D5F8D3710F08D5793958093D706808129
:101A1000890F80839181911D91830281011D028331
:101A20008381811D838309270F7009270295009305
:101A3000D6063BD081110093D4068C3A11F08C3538
:101A4000A1F40091D506901B963088F085538093C1
:101A5000000880930108289828D0F1F788E198E0E1
:101A60008093600090936000FFCF9093D5068091A3
:101A7000CA06815020F08093CA0687E741F3E6EC5E
:101A8000F6E08081918101968083918382819381A8
:101A9000811D911D82839383FF91EF919F918F917F
:101AA0001F900F910FBF0F9118958FB18095807F78
:101AB000669B88601C9B84600895789484B58260DE
:101AC00084BD816084BD85B5826085BD816085BD32
:101AD00081E080936E00E1E8F0E0108282E0808394
:101AE00081608083E0E8808181608083E1E980819A
:101AF0008260808381608083E0E98081816080836F
:101B0000E1EC808184608083826080838160808357
:101B1000E3EC808181608083E0EC8081826080835F
:101B2000E2EC808181608083EAE780818460808349
:101B30008260808381608083806880831092250228
:101B40001092CB06109223028091D700816080937F
:101B5000D70080EA8093D80089B5806189BD89B5B6
:101B6000826089BD09B400FEFDCF0E947F0680918E
:101B7000D8008F7C80618093D8008091E000807FC6
:101B80008093E0008091E1008E7E8093E1008DE003
:101B90008093E200559A209A81EC80937C0085B175
:101BA000806F85B984B1877E84B984B1876E84B92A
:101BB0005E9A5F988AB1806D8AB9769A6E9881B381
:101BC000806F81BB899880B38D7080BB80E58CBDB0
:101BD00081E08DBD85E090E00E94B80B5F9A85E0C2
:101BE00090E00E94B80B5E985C98ECE5F1E089E625
:101BF00091E024912EBD00000DB407FEFDCF31967B
:101C00008E179F07B1F75C9A81E8809364008091FA
:101C1000650081608093650080E00E94CF040E948F
:101C2000D30B87FF1FC05C9885EA8EBD00000DB402
:101C300007FEFDCF5C9A2E982F982D9881E083BFE8
:101C4000889513BEFCCF2D980E94D30B84788438DE
:101C500071F00E94D30B8471843131F188EC90E0F3
:101C60000E94B80B0E94D30B82FDEDCF3AC00E94B8
:101C7000B60B88EC90E00E94B80B2F9882E090E0C1
:101C80000E944E138F3F29F06FEF82E090E00E9498
:101C9000561384EF91E00E94B80B2F9A0E94D30B49
:101CA00084788438D9F3D5CF0E94B60B88EC90E0C5
:101CB0000E94B80B2E9882E090E00E944E13882379
:101CC00029F060E082E090E00E94561384EF91E0FA
:101CD0000E94B80B2E9A0E94D30B84718431D9F3E1
:101CE000BDCF0E94B60B82E090E00E94DB0B882300
:101CF00019F03E9A3F9A02C03E983F9881E090E0EA
:101D00000E94DB0B182F147081FF39C011112E981F
:101D1000C0EFDFEF0E94D30B86FF05C02E9A2F9AEB
:101D20000E94B60B2CC0112329F0C430D10511F448
:101D30002E9A2F9881E00E94CF0400E128E54CEA1A
:101D400050E0BE0184E190E00E948A0580E00E949C
:101D5000CF048FE090E00E94B80B2196C931D105E5
:101D6000C9F6112311F02F9A2D9880E991E00E9475
:101D7000B80B0E94B60B83E596E00E94671282E3DF
:101D800090E00E94B80B0E94D30B8111F8CF81E242
:101D900080935E06809164008E7F809364008091C2
:101DA0007A00806480937A0080917A0086FDFCCF6F
:101DB000C0917800D09179000E94A6078E0120E0A2
:101DC00030E0980111270027600F711F821F931FB9
:101DD00020916400216020936400611571058105E4
:101DE000910511F00E94451384E08093E2018093F5
:101DF000000280911E028F5F80931E02D4E016E0E5
:101E0000812E912CA12CB12C08E0C02ED12CE12CDC
:101E1000F12C0E94F712A50194010E946413DC01C9
:101E2000CB010296A11DB11DD80F0E94F712C091DF
:101E30001E020C2F10E0F801EE51FE4FD08300502F
:101E40001E4FA70196010E946413F8016083CF5FC3
:101E5000C0931E02D837E8F28C2F90E0FC01EE51BF
:101E6000FE4F2CE72083FC01E050FE4F24E020834E
:101E70002093A5012093C3018091E1018F5F80939E
:101E8000E101A4E02A2EB6E04B2E512C612C712CDE
:101E9000C8E0CC2ED12CE12CF12C0E94F7124B0182
:101EA0005C010E94F712A30192010E946413DC01FD
:101EB000CB010296A11DB11D280E3090E101C32D6A
:101EC000D0E08E010B551E4FC501B401A70196014C
:101ED0000E946413F8016083CD53DE4F288233944F
:101EE0003092E101F6E3F215C0F6832D90E0FC019B
:101EF000EB55FE4F24E02083FC01ED53FE4F3BE306
:101F000030838CE780936801209386018091A4013F
:101F10008F5F8093A40174E0272EE6E04E2E512CB3
:101F2000612C712CF7E0CF2ED12CE12CF12C0E94EA
:101F3000F7124B015C010E94F712A30192010E946B
:101F40006413DC01CB010296A11DB11D280E309057
:101F5000A401C32DD0E08E0108591E4FC501B40164
:101F6000A70196010E946413DC01CB0188589F4FA2
:101F7000AF4FBF4FF8018083CA57DE4F288233949A
:101F80003092A401F6E3F21590F6832D90E0FC0167
:101F9000E859FE4F2CE72083FC01EA57FE4F2BE364
:101FA00020830E94F7122CE030E040E050E00E94D5
:101FB0006413DC01CB010296A11DB11D682F660FD1
:101FC000660F660F60931F020E94F71226E030E052
:101FD00040E050E00E946413DC01CB010296A11D99
:101FE000B11D682F660F660F660F609320028EE3A7
:101FF000282E82E0382E97E3492E512C27E7E22E37
:10200000F12C30E0C32E30E0D32E4BE3A42EB12CC4
:1020100056E3852E52E0952E6EE2662E62E0762E15
:10202000C1E017E780E0F10181118FEF0024819377
:102030008193819381930394D1F710926506109256
:10204000640610926306109262068FB7F89440916E
:10205000D0065091D1066091D2067091D3068FBF01
:1020600080915F06242F281B822F90916006992370
:1020700029F0209361061092600670C190915E066F
:10208000291740F48F5F891708F068C1C3BF88958E
:1020900013BE64C1C093600640935F0680915A06E8
:1020A00090915B06019690935B0680935A0680910F
:1020B0002102882311F0D1E04FC0109263061092E4
:1020C0006206109265061092640682E080936806AC
:1020D0008AE991E00E94E60482E991E00E94E60428
:1020E000C09368068DE791E00E94E6040E94DE043A
:1020F0000E94DE0489E691E00E94E60480E00E94EE
:10210000CF0480915C0680935D060E94D30B809380
:102110005C0688E00E94C404882399F3C0932102DE
:102120001DC14D2F50E0CA010197FA01E050FE4F4A
:10213000208130E0FA01EE51FE4F408150E0FC0179
:10214000E050FE4F608170E0FC01EE51FE4F808157
:1021500090E00E940405DF5F80911E028D1708F752
:10216000D1E01BC04D2F50E0CA010197FA01ED5399
:10217000FE4F208130E0FA01EB55FE4F408150E0E8
:10218000FC01ED53FE4F608170E0FC01EB55FE4F0A
:10219000808190E00E940405DF5F8091E1018D174E
:1021A00008F7D1E08091A4018D17E0F04D2F50E0A9
:1021B000CA010197FA01EA57FE4F208130E0FA0187
:1021C000E859FE4F408150E0FC01EA57FE4F608124
:1021D00070E0FC01E859FE4F808190E00E94040508
:1021E000DF5FE0CF80915C0680935D060E94D30B99
:1021F00080935C0688E00E94C4048823A1F080914B
:10220000000190910101E2E086339E0729F470926B
:1022100001016092000107C08E52924021F4909219
:1022200001018092000180E20E94C404882361F0D1
:10223000E0910001F091010183819581891B883033
:1022400008F488E0838342C080E40E94C4048823A9
:10225000A1F0E0910001F091010155814381450F0A
:10226000242F30E0C701851B91098217930714F0D2
:1022700043832CC0812F851BE5CF80E80E94C404D6
:10228000882359F0E0910001F0910101848195814A
:10229000891B8830D0F488E018C080E10E94C40413
:1022A0008823A1F0E0910001F09101015581448162
:1022B000450F242F30E0C201851B91098217930737
:1022C00014F0448303C087E3851B848340913C0260
:1022D00050913D0260913A0270E08091390208E02D
:1022E00028E090E00E948A05409134025091350226
:1022F0006091320270E08091310228E090E00E940B
:102300008A056091200270E080911F0228E041EA76
:1023100051E090E00E948A0540912C0250912D02DC
:1023200028E060E270E080E690E00E948A0510926A
:102330004C0610924B0610924A0610924906B09233
:102340004E06A0924D0649E150E06BE471E08EE349
:1023500096E00E94610A80E00E94CF04C114D1047B
:1023600009F460CE0E9400005BCEE6E7F6E013823F
:10237000128288EE93E0A0E0B0E084839583A68388
:10238000B78386E191E0918380838FEF9FEF9587FC
:102390008487E3E5F6E0138212821186128680E1DB
:1023A000838710861782158684E391E0918380836A
:1023B00082E491E095838483108A1786128A118AB9
:1023C00091E0938B148A958B168AEEE3F6E01382E4
:1023D000128228E231E0318320832EE332E036831B
:1023E000258320E830E03087278320E430E03287FF
:1023F000218785E0848B938B16861586108A178635
:102400001486138621E030E0328B218B1482E6E3C0
:10241000F2E05DE2508342E0418388E0828385837D
:102420008383848321EB31E037832683EEE2F2E07D
:102430005083418382838583838348E14483378348
:102440002683E6E2F2E02EE1208391839AE09283F4
:10245000858380E6838380E2848389EA91E09783A1
:1024600086830895DF92EF92FF920F931F93CF938D
:10247000DF93D82EF92EE42E062F10E0C801019626
:10248000880F0E94440783E00E944407CD2DDF2D72
:102490000C0F1D1FC017D10789F0E7FE03C0FE0116
:1024A000849101C088810E944407F82E80E00E9438
:1024B00044078F2121968111EDCF01C081E0DF918A
:1024C000CF911F910F91FF90EF90DF9008950F93A0
:1024D0001F93CF93DF938C0181E090E00E94DB0B90
:1024E00080FF32C08AE090E00E94DB0B9FEF980FE4
:1024F0009E3F50F522E330E0D80150963C932E9356
:102500001F9728E330E052963C932E935197CBE0EF
:10251000D0E0D801ED91FC910190F081E02D682F81
:10252000C8010995CE010E94DB0B2196C131D1056E
:1025300081F780E00E94CF0488EE93E0DF91CF9195
:102540001F910F910C94B80BDF91CF911F910F91B8
:10255000089504970C9467128F929F92AF92BF9246
:10256000CF92DF92EF92FF92CF93DF93EC016881DD
:1025700079818A819B81611571058105910521F41D
:1025800064E279ED8BE597E02DE133EF41E050E037
:102590000E94641349015A019B01AC01A7EAB1E40E
:1025A0000E9483136B017C01ACEEB4EFA501940192
:1025B0000E949113DC01CB018C0D9D1DAE1DBF1D32
:1025C000B7FF03C00197A109B04888839983AA8304
:1025D000BB83BC01CD019F77DF91CF91FF90EF903E
:1025E000DF90CF90BF90AF909F908F9008958F9283
:1025F0009F92AF92BF92CF92DF92EF92FF92609143
:102600000E0170910F0180911001909111016115DF
:1026100071058105910521F464E279ED8BE597E080
:102620002DE133EF41E050E00E94641349015A016B
:102630009B01AC01A7EAB1E40E9483136B017C010A
:10264000ACEEB4EFA50194010E949113DC01CB0123
:102650008C0D9D1DAE1DBF1DB7FF03C00197A109C5
:10266000B04880930E0190930F01A0931001B09396
:102670001101BC01CD019F77FF90EF90DF90CF90CB
:10268000BF90AF909F908F90089560930E017093CC
:102690000F0180931001909311010895F999FECFD5
:1026A00092BD81BDF89A992780B50895262FF99992
:1026B000FECF1FBA92BD81BD20BD0FB6F894FA9A25
:1026C000F99A0FBE01960895052E97FB1EF400940B
:1026D0000E947B1357FD07D00E94961307FC03D07E
:1026E0004EF40C947B1350954095309521953F4FB7
:1026F0004F4F5F4F089590958095709561957F4FEE
:102700008F4F9F4F08950E94B813A59F900DB49FBF
:10271000900DA49F800D911D11240895B7FF0C9476
:1027200083130E948313821B930B0895A1E21A2E38
:10273000AA1BBB1BFD010DC0AA1FBB1FEE1FFF1F65
:10274000A217B307E407F50720F0A21BB30BE40BB5
:10275000F50B661F771F881F991F1A9469F76095FC
:102760007095809590959B01AC01BD01CF010895B6
:10277000A29FB001B39FC001A39F700D811D1124C2
:10278000911DB29F700D811D1124911D089597FB1D
:10279000072E16F4009407D077FD09D00E94DB13B2
:1027A00007FC05D03EF4909581959F4F0895709554
:1027B00061957F4F0895AA1BBB1B51E107C0AA1F5B
:1027C000BB1FA617B70710F0A61BB70B881F991FD2
:1027D0005A95A9F780959095BC01CD010895EE0F0B
:0E27E000FF1F0590F491E02D0994F894FFCFAF
:1027EE00360200E1000000000000FFFFFFFF0100C5
:1027FE000000000000005D0494067E0473042A07A6
:10280E008204A004000000000B0B610AB30BB20B94
:10281E0000000000F80B610AB30BB20B6712FCFF4D
:10282E000000A91200C18081000000505245535390
:10283E00204120544F20535749544348204A454C79
:08284E004C494553000D0A003E
:00000001FF
